:100000000C942A000C943F000C943F000C943F0089
:100010000C943F000C943F000C943F000C943F0064
:100020000C943F000C943F000C943F000C943F0054
:100030000C943F000C943F000C943F000C943F0044
:100040000C943F000C943F000C943F000C943F0034
:100050000C943F0011241FBECFE5D4E0DEBFCDBF1E
:1000600010E0A0E6B0E0ECEBF1E002C005900D92EC
:10007000A036B107D9F70E94C2000C94DC000C94A2
:100080000000AB9AAC9AAD9AAE9AAF9A2FE38DE08E
:1000900093E0215080409040E1F700C00000AB9811
:1000A000AC98AD98AE98AF982FE38DE093E02150D7
:1000B00080409040E1F700C000000895AB9AAC98F2
:1000C000AD9AAE98AF9A2FE38DE093E02150804037
:1000D0009040E1F700C00000AB98AC9AAD98AE9AA2
:1000E000AF982FE38DE093E0215080409040E1F7FE
:1000F00000C000000895AB9AAC98AD98AE98AF9848
:100100002FE38DE093E0215080409040E1F700C064
:100110000000AB98AC9AAD98AE98AF982FE38DE005
:1001200093E0215080409040E1F700C00000AB9880
:10013000AC98AD9AAE98AF982FE38DE093E0215044
:1001400080409040E1F700C00000AB98AC98AD98BB
:10015000AE9AAF982FE38DE093E02150804090401D
:10016000E1F700C00000AB98AC98AD98AE98AF9A9C
:100170002FE38DE093E0215080409040E1F700C0F4
:100180000000089588EF8ABB8BB387608BBBC8994A
:1001900003C00E944100FBCFC99903C00E945E00CA
:1001A000F6CFCA9903C00E947B00F1CFAB98AC9800
:0C01B000AD98AE98AF98EBCFF894FFCF5D
:00000001FF
